{
  "contractName": "safe",
  "abi": [
    {
      "constant": false,
      "inputs": [
        {
          "internalType": "address",
          "name": "_checker",
          "type": "address"
        },
        {
          "internalType": "string",
          "name": "_num",
          "type": "string"
        },
        {
          "internalType": "string",
          "name": "_result",
          "type": "string"
        },
        {
          "internalType": "string",
          "name": "_date",
          "type": "string"
        }
      ],
      "name": "add_check",
      "outputs": [],
      "payable": false,
      "stateMutability": "nonpayable",
      "type": "function"
    },
    {
      "constant": true,
      "inputs": [],
      "name": "total_count",
      "outputs": [
        {
          "internalType": "uint32",
          "name": "",
          "type": "uint32"
        }
      ],
      "payable": false,
      "stateMutability": "view",
      "type": "function"
    },
    {
      "constant": true,
      "inputs": [
        {
          "internalType": "uint256",
          "name": "_index",
          "type": "uint256"
        }
      ],
      "name": "get_check",
      "outputs": [
        {
          "internalType": "address",
          "name": "",
          "type": "address"
        },
        {
          "internalType": "string",
          "name": "",
          "type": "string"
        },
        {
          "internalType": "string",
          "name": "",
          "type": "string"
        },
        {
          "internalType": "string",
          "name": "",
          "type": "string"
        }
      ],
      "payable": false,
      "stateMutability": "view",
      "type": "function"
    },
    {
      "constant": true,
      "inputs": [
        {
          "internalType": "string",
          "name": "_num",
          "type": "string"
        }
      ],
      "name": "get_list",
      "outputs": [
        {
          "internalType": "address",
          "name": "",
          "type": "address"
        },
        {
          "internalType": "string",
          "name": "",
          "type": "string"
        },
        {
          "internalType": "string",
          "name": "",
          "type": "string"
        }
      ],
      "payable": false,
      "stateMutability": "view",
      "type": "function"
    }
  ],
  "bytecode": "0x608060405234801561001057600080fd5b50611021806100206000396000f3fe608060405234801561001057600080fd5b506004361061004c5760003560e01c8063398f0086146100515780637220c5bb1461007b5780637a01ebf314610284578063e4fc25ab14610457575b600080fd5b610059610609565b604051808263ffffffff1663ffffffff16815260200191505060405180910390f35b6102826004803603608081101561009157600080fd5b81019080803573ffffffffffffffffffffffffffffffffffffffff169060200190929190803590602001906401000000008111156100ce57600080fd5b8201836020820111156100e057600080fd5b8035906020019184600183028401116401000000008311171561010257600080fd5b91908080601f016020809104026020016040519081016040528093929190818152602001838380828437600081840152601f19601f8201169050808301925050505050505091929192908035906020019064010000000081111561016557600080fd5b82018360208201111561017757600080fd5b8035906020019184600183028401116401000000008311171561019957600080fd5b91908080601f016020809104026020016040519081016040528093929190818152602001838380828437600081840152601f19601f820116905080830192505050505050509192919290803590602001906401000000008111156101fc57600080fd5b82018360208201111561020e57600080fd5b8035906020019184600183028401116401000000008311171561023057600080fd5b91908080601f016020809104026020016040519081016040528093929190818152602001838380828437600081840152601f19601f820116905080830192505050505050509192919290505050610622565b005b61033d6004803603602081101561029a57600080fd5b81019080803590602001906401000000008111156102b757600080fd5b8201836020820111156102c957600080fd5b803590602001918460018302840111640100000000831117156102eb57600080fd5b91908080601f016020809104026020016040519081016040528093929190818152602001838380828437600081840152601f19601f820116905080830192505050505050509192919290505050610995565b604051808473ffffffffffffffffffffffffffffffffffffffff1673ffffffffffffffffffffffffffffffffffffffff1681526020018060200180602001838103835285818151815260200191508051906020019080838360005b838110156103b3578082015181840152602081019050610398565b50505050905090810190601f1680156103e05780820380516001836020036101000a031916815260200191505b50838103825284818151815260200191508051906020019080838360005b838110156104195780820151818401526020810190506103fe565b50505050905090810190601f1680156104465780820380516001836020036101000a031916815260200191505b509550505050505060405180910390f35b6104836004803603602081101561046d57600080fd5b8101908080359060200190929190505050610c44565b604051808573ffffffffffffffffffffffffffffffffffffffff1673ffffffffffffffffffffffffffffffffffffffff168152602001806020018060200180602001848103845287818151815260200191508051906020019080838360005b838110156104fd5780820151818401526020810190506104e2565b50505050905090810190601f16801561052a5780820380516001836020036101000a031916815260200191505b50848103835286818151815260200191508051906020019080838360005b83811015610563578082015181840152602081019050610548565b50505050905090810190601f1680156105905780820380516001836020036101000a031916815260200191505b50848103825285818151815260200191508051906020019080838360005b838110156105c95780820151818401526020810190506105ae565b50505050905090810190601f1680156105f65780820380516001836020036101000a031916815260200191505b5097505050505050505060405180910390f35b60008060009054906101000a900463ffffffff16905090565b60008081819054906101000a900463ffffffff168092919060010191906101000a81548163ffffffff021916908363ffffffff16021790555050600260405180608001604052808673ffffffffffffffffffffffffffffffffffffffff168152602001858152602001848152602001838152509080600181540180825580915050906001820390600052602060002090600402016000909192909190915060008201518160000160006101000a81548173ffffffffffffffffffffffffffffffffffffffff021916908373ffffffffffffffffffffffffffffffffffffffff1602179055506020820151816001019080519060200190610723929190610ec7565b506040820151816002019080519060200190610740929190610ec7565b50606082015181600301908051906020019061075d929190610ec7565b50505050836001846040518082805190602001908083835b602083106107985780518252602082019150602081019050602083039250610775565b6001836020036101000a038019825116818451168082178552505050505050905001915050908152602001604051809103902060000160006101000a81548173ffffffffffffffffffffffffffffffffffffffff021916908373ffffffffffffffffffffffffffffffffffffffff160217905550826001846040518082805190602001908083835b602083106108435780518252602082019150602081019050602083039250610820565b6001836020036101000a0380198251168184511680821785525050505050509050019150509081526020016040518091039020600101908051906020019061088c929190610f47565b50816001846040518082805190602001908083835b602083106108c457805182526020820191506020810190506020830392506108a1565b6001836020036101000a0380198251168184511680821785525050505050509050019150509081526020016040518091039020600201908051906020019061090d929190610f47565b50806001846040518082805190602001908083835b602083106109455780518252602082019150602081019050602083039250610922565b6001836020036101000a0380198251168184511680821785525050505050509050019150509081526020016040518091039020600301908051906020019061098e929190610f47565b5050505050565b60006060806001846040518082805190602001908083835b602083106109d057805182526020820191506020810190506020830392506109ad565b6001836020036101000a038019825116818451168082178552505050505050905001915050908152602001604051809103902060000160009054906101000a900473ffffffffffffffffffffffffffffffffffffffff166001856040518082805190602001908083835b60208310610a5d5780518252602082019150602081019050602083039250610a3a565b6001836020036101000a03801982511681845116808217855250505050505090500191505090815260200160405180910390206002016001866040518082805190602001908083835b60208310610ac95780518252602082019150602081019050602083039250610aa6565b6001836020036101000a0380198251168184511680821785525050505050509050019150509081526020016040518091039020600301818054600181600116156101000203166002900480601f016020809104026020016040519081016040528092919081815260200182805460018160011615610100020316600290048015610b945780601f10610b6957610100808354040283529160200191610b94565b820191906000526020600020905b815481529060010190602001808311610b7757829003601f168201915b50505050509150808054600181600116156101000203166002900480601f016020809104026020016040519081016040528092919081815260200182805460018160011615610100020316600290048015610c305780601f10610c0557610100808354040283529160200191610c30565b820191906000526020600020905b815481529060010190602001808311610c1357829003601f168201915b505050505090509250925092509193909250565b6000606080606060028581548110610c5857fe5b906000526020600020906004020160000160009054906101000a900473ffffffffffffffffffffffffffffffffffffffff1660028681548110610c9757fe5b906000526020600020906004020160010160028781548110610cb557fe5b906000526020600020906004020160020160028881548110610cd357fe5b9060005260206000209060040201600301828054600181600116156101000203166002900480601f016020809104026020016040519081016040528092919081815260200182805460018160011615610100020316600290048015610d795780601f10610d4e57610100808354040283529160200191610d79565b820191906000526020600020905b815481529060010190602001808311610d5c57829003601f168201915b50505050509250818054600181600116156101000203166002900480601f016020809104026020016040519081016040528092919081815260200182805460018160011615610100020316600290048015610e155780601f10610dea57610100808354040283529160200191610e15565b820191906000526020600020905b815481529060010190602001808311610df857829003601f168201915b50505050509150808054600181600116156101000203166002900480601f016020809104026020016040519081016040528092919081815260200182805460018160011615610100020316600290048015610eb15780601f10610e8657610100808354040283529160200191610eb1565b820191906000526020600020905b815481529060010190602001808311610e9457829003601f168201915b5050505050905093509350935093509193509193565b828054600181600116156101000203166002900490600052602060002090601f016020900481019282601f10610f0857805160ff1916838001178555610f36565b82800160010185558215610f36579182015b82811115610f35578251825591602001919060010190610f1a565b5b509050610f439190610fc7565b5090565b828054600181600116156101000203166002900490600052602060002090601f016020900481019282601f10610f8857805160ff1916838001178555610fb6565b82800160010185558215610fb6579182015b82811115610fb5578251825591602001919060010190610f9a565b5b509050610fc39190610fc7565b5090565b610fe991905b80821115610fe5576000816000905550600101610fcd565b5090565b9056fea265627a7a72315820126805d7ad1eb411647e009bfb98b2b3654781e7e3f516d4cdd4d4884435b66b64736f6c63430005100032",
  "source": "//SPDX-License-Identifier: MIT\r\npragma solidity >=0.4.22 < 0.8.0;\r\n\r\ncontract safe{\r\n    uint32 count; //배열의 개수\r\n\r\n    struct check_list{ // 점검사항을 담아두는 구조체\r\n        address checker; //점검자의 지갑주소\r\n        string num; //점검할 리뷰의 번호\r\n        string result; //점검 결과\r\n        string date; //점검 시간\r\n    }\r\n\r\n    mapping(string => check_list) internal lists;\r\n\r\n    check_list[] internal checks; //구조체를 배열로 선언\r\n\r\n    function add_check(address _checker, string memory _num, string memory _result, string memory _date) public {\r\n        count++;\r\n        checks.push(check_list(_checker, _num, _result, _date));\r\n        lists[_num].checker = _checker;\r\n        lists[_num].num = _num;\r\n        lists[_num].result = _result;\r\n        lists[_num].date = _date;\r\n    }\r\n\r\n    function total_count() public view returns(uint32){\r\n        return count;\r\n    }\r\n\r\n    function get_check(uint _index) public view returns (address, string memory, string memory, string memory){\r\n        return (checks[_index].checker, checks[_index].num, checks[_index].result, checks[_index].date);\r\n    }\r\n\r\n    \r\n    function get_list(string memory _num) public view returns (address, string memory, string memory){\r\n        return (lists[_num].checker, lists[_num].result, lists[_num].date); \r\n    }\r\n}",
  "sourcePath": "C:\\Users\\puple\\OneDrive\\Documents\\Git hub\\Study-Front\\7.19KAS\\contracts\\safe.sol",
  "compiler": {
    "name": "solc",
    "version": "0.5.16+commit.9c3226ce.Emscripten.clang"
  },
  "schemaVersion": "3.4.8",
  "updatedAt": "2022-07-22T06:46:40.101Z",
  "devdoc": {
    "methods": {}
  },
  "userdoc": {
    "methods": {}
  }
}